{
  "contractName": "MoonToken",
  "abi": [
    {
      "constant": true,
      "inputs": [],
      "name": "totalSupply",
      "outputs": [
        {
          "name": "",
          "type": "uint256"
        }
      ],
      "payable": false,
      "stateMutability": "view",
      "type": "function"
    },
    {
      "inputs": [],
      "payable": false,
      "stateMutability": "nonpayable",
      "type": "constructor"
    }
  ],
  "bytecode": "0x608060405234801561001057600080fd5b50620f4240600081905550609e806100296000396000f300608060405260043610603f576000357c0100000000000000000000000000000000000000000000000000000000900463ffffffff16806318160ddd146044575b600080fd5b348015604f57600080fd5b506056606c565b6040518082815260200191505060405180910390f35b600054815600a165627a7a723058203983d8182be23befb257c90eb38f00af507a0b26ac6ce4f2a066c829c6c0a3ed0029",
  "source": "pragma solidity ^0.4.22;\r\n\r\ncontract MoonToken {\r\n    uint public totalSupply;\r\n\r\n    function MoonToken() public {\r\n        totalSupply = 1000000;\r\n    }\r\n}",
  "sourcePath": "C:\\Users\\kaust\\Desktop\\erc20\\contracts\\MoonToken.sol",
  "compiler": {
    "name": "solc",
    "version": "0.4.22+commit.4cb486ee.Emscripten.clang"
  },
  "schemaVersion": "3.4.6",
  "updatedAt": "2022-03-29T13:35:12.034Z",
  "networkType": "ethereum",
  "devdoc": {
    "methods": {}
  },
  "userdoc": {
    "methods": {}
  }
}